:020000040800F2
:10000000000003204D2C04085D7300086173000894
:1000100065730008697300086D7300080000000034
:1000200000000000000000000000000071730008E4
:100030007573000800000000797300087D730008E4
:100040009D2C04089D2C04089D2C04089D2C04085C
:100050009D2C04089D2C04089D2C04089D2C04084C
:100060009D2C04089D2C04089D2C04089D2C04083C
:100070009D2C04089D2C04089D2C04081580000864
:100080009D2C04089D2C04089D2C04089D2C04081C
:100090009D2C04089D2C04089D2C04089D2C04080C
:1000A0009D2C04089D2C04089D2C04089D2C0408FC
:1000B000817300089D730008BD7300089D2C04081F
:1000C0009D2C04089D2C04089D2C04089D2C0408DC
:1000D0009D2C04089D2C04089D2C04089D2C0408CC
:1000E0009D2C04089D2C04089D2C04089D2C0408BC
:1000F0009D2C04089D2C04089D2C04089D2C0408AC
:100100009D2C04089D2C04089D2C04089D2C04089B
:100110009D2C04089D2C04089D2C04089D2C04088B
:100120009D2C04089D2C04089D2C040805830008C0
:100130009D2C04089D2C04089D2C04089D2C04086B
:100140009D2C04089D2C04089D2C0408D9880008C7
:100150009D2C04089D2C04089D2C04089D2C04084B
:100160009D2C04089D2C04089D2C04089D2C04083B
:100170009D2C04089D2C04089D2C04080000000000
:100180009D2C04089D2C04089D2C04089D2C04081B
:100190009D2C04089D2C04089D2C04089D2C04080B
:0C01A0009D2C04089D2C04089D2C0408D4
:1001AC0010B5054C237833B9044B13B10448AFF3A5
:1001BC0000800123237010BD880D0020000000007A
:1001CC00902E040808B5034B1BB103490348AFF349
:1001DC00008008BD000000008C0D0020902E04084B
:1001EC00034613F8012B002AFBD1181A013870476B
:1001FC0053B94AB9002908BF00281CBF4FF0FF3182
:10020C004FF0FF3000F06EB9ADF1080C6DE904CE83
:10021C0000F006F8DDF804E0DDE9022304B07047D5
:10022C002DE9F047089D04468C46002B40F0838056
:10023C008A42174647D9B2FA82F242B1C2F1200083
:10024C0024FA00F09140974040EA010C94404FEAA8
:10025C001748230CBCFBF8F61FFA87FE08FB16C1E7
:10026C0043EA014306FB0EF1994209D9FB1806F14A
:10027C00FF3080F01981994240F21681023E3B44D6
:10028C005B1AA4B2B3FBF8F008FB103344EA034446
:10029C0000FB0EFEA64509D93C1900F1FF3380F096
:1002AC000581A64540F2028102383C4440EA0640F2
:1002BC00A4EB0E0400261DB1D4400023C5E9004375
:1002CC003146BDE8F08702B9FFDEB2FA82F2002AAD
:1002DC0050D1CB1B4FEA174E1FFA87F80126B3FB00
:1002EC00FEFC210C0EFB1C3341EA034108FB0CF312
:1002FC008B4207D979180CF1FF3002D28B4200F2F5
:10030C00E9808446C91AA3B2B1FBFEF00EFB1011B2
:10031C0043EA014408FB00F8A04507D93C1900F159
:10032C00FF3302D2A04500F2D9801846A4EB080492
:10033C0040EA0C40BFE78B4209D9002D00F0B18098
:10034C000026C5E9000130463146BDE8F087B3FA16
:10035C0083F6002E4AD18B4202D3824200F2B8803F
:10036C00841A61EB030101208C46002DA8D0C5E94D
:10037C00004CA5E7C2F1200320FA03F6974001FADE
:10038C0002F04FEA174ED9403043030CB1FBFEF696
:10039C001FFA87F80EFB161143EA014306FB08F11E
:1003AC00994204FA02F409D9FB1806F1FF3C80F0DB
:1003BC008D80994240F28A80023E3B445B1A81B2A6
:1003CC00B3FBFEF00EFB103341EA034100FB08F3D4
:1003DC008B4207D9791800F1FF3C73D28B4271D94B
:1003EC0002383944CB1A40EA064678E7C6F1200CAD
:1003FC0003FA06F422FA0CF31C4320FA0CF701FA68
:10040C0006F34FEA144E21FA0CF11F433B0CB1FBDF
:10041C00FEF91FFA84F80EFB191143EA014109FB9E
:10042C0008FA8A4502FA06F200FA06F308D96118AE
:10043C0009F1FF3048D28A4546D9A9F10209214475
:10044C00A1EB0A01BFB2B1FBFEF00EFB101147EAA3
:10045C00014700FB08F8B84507D9E71900F1FF314F
:10046C002ED2B8452CD90238274440EA0940A7EBD4
:10047C000807A0FB02894F45C64649461AD317D038
:10048C005DB1B3EB0E0267EB010707FA0CFCF2400F
:10049C004CEA0202F740C5E9002700263146BDE8C8
:1004AC00F0872E4628460BE70646E9E61846FDE699
:1004BC004345E5D2B8EB020E69EB04010138DFE7E6
:1004CC000846D2E760468DE78146B9E7664675E790
:1004DC0030464AE7ACF1020C394413E702383C448D
:1004EC0024E700BF704700BF00487047082F04087E
:1004FC00004870471C2F04082DE9F04389B00028F0
:10050C007ED0032800F0848000F2D381D94E56F8B7
:10051C0020402046FFF764FE2028024628BF2022F8
:10052C00002800F0CC812546D34E15F8011BB646A9
:10053C002B1B02F1FF399A422EF8021F09F007001B
:10054C00A04652D960B3012821D002281BD0032821
:10055C0015D004280FD0052809D006281CBF18F880
:10056C00010F2EF8020F18F8017F2EF8027F18F8F1
:10057C00015F2EF8025F18F8011F2EF8021F18F801
:10058C00013F2EF8023F18F801CF2EF802CF40465B
:10059C000230071B18F8019F2EF8029FBA4224D98B
:1005AC0098F80150AEF8025098F80210AEF804100A
:1005BC0098F80330AEF8063098F804C0AEF808C0CE
:1005CC0098F80500AEF80A0098F80670AEF80C70B2
:1005DC0098F80750AEF80E5008F109010B1B18F8EB
:1005EC00080F2EF8100F9A42DAD8541C620042F40D
:1005FC00407E1FFA8EF7A048378009B0BDE8F08323
:10060C009C4B9D4E1868018871804FF44177F2E73E
:10061C009A4A002A00F0368110216846AFF3008018
:10062C0010288446864628BF4FF0100C002800F096
:10063C004281934D9DF800708F4E95E80F0004ACED
:10064C0084E80F0007F00F0908A901EB1712894481
:10065C004FEA8C07023719F8100C12F8108CB08086
:10066C0047F44073BEF1010FA6F802809FB2C2D9C5
:10067C0095E80F009DF8015084E80F000DF120095A
:10068C0005F00F044C4409EB151E14F8101C1EF851
:10069C00102C3181BCF1020FF280ACD09DF802001D
:1006AC0000F00F08C84409EB101E18F8103C1EF897
:1006BC00105CB381BCF1030F75819CD09DF8034095
:1006CC0004F00F01494409EB141E11F8102C1EF80C
:1006DC00100C3282BCF1040FF0818CD09DF80430E8
:1006EC0003F00F08C84409EB131E18F8105C1EF831
:1006FC00104CB582BCF1050F74823FF47CAF9DF8B1
:10070C00051001F00F024A4409EB111E12F8100CEF
:10071C001EF8103C3083BCF1060FF3823FF46BAF34
:10072C009DF8065005F00F08C84409EB151E18F883
:10073C00104C1EF8101CB483BCF1070F71833FF4EE
:10074C005AAF9DF8072002F00F00484409EB121E27
:10075C0010F8103C1EF8105C3384BCF1080FF583C4
:10076C003FF449AF9DF8084004F00F08C84409EB6A
:10077C00141E18F8101C1EF8102CB184BCF1090FB3
:10078C0072843FF438AF9DF8090000F00F034B441E
:10079C0009EB101E13F8105C1EF8104C3585BCF1DB
:1007AC000A0FF4843FF427AF9DF80A1001F00F08EC
:1007BC00C84409EB111E18F8102C1EF8100CB28549
:1007CC00BCF10B0F70853FF416AF9DF80B3003F0A6
:1007DC000F054D4409EB131E15F8104C1EF8101C98
:1007EC003486BCF10C0FF1853FF405AF9DF80C205D
:1007FC0002F00F08C84409EB121E18F8100C1EF872
:10080C00103CB086BCF10D0F73863FF4F4AE9DF82E
:10081C000D5005F00F044C4409EB151E14F8101C78
:10082C001EF8102C3187BCF10E0FF2863FF4E3AEAC
:10083C009DF80E0000F00F08C84409EB101E18F8C4
:10084C00103C1EF8105CB387BCF1100F75877FF459
:10085C00D2AE9DF80F4004F00F01494409EB141C73
:10086C0011F8102C1CF8100CA6F84020CE46F0877E
:10087C00C1E600BF00000020A40D00200000000015
:10088C00D02E0408104D114E95E80F0004AC84E8EE
:10089C000F000F480F4B9DF811709DF81080B7801A
:1008AC00CDE90003A6F8028040F222374FF0080C85
:1008BC00DEE60020A1E6054E40F202379BE6034E31
:1008CC0040F2023797E600BFD02E0408A40D00209A
:1008DC000123456789ABCDEF0378024613F0010085
:1008EC0011D1117849070DD4107810F001000AD1FC
:1008FC0092F800C05FEA4C7307D4137843F00401FC
:10090C001170012070470020704770470378C3F3C3
:10091C0080025B0708D5037813F0010105BF03784B
:10092C0061F382030022037010467047C3788288FB
:10093C0003F003000228C2F30A0205D0032819D0E1
:10094C00012807D00020704702291CD0402A09D862
:10095C0001207047022940F2FF3108BF4FF480613B
:10096C009142F6D20A48036813F00100F1D000BEA0
:10097C000020704702290CBF4FF480634023934240
:10098C00F0D30120E5E7B2F5007FE1D0EAE700BF44
:10099C00F0ED00E00A44914211D230B44C78052CB1
:1009AC0007D18C7804F07F0500EB450CE4090CF8BA
:1009BC0004300D7829448A42F0D830BC7047704717
:1009CC0038B58488D51A9A4238BF05EB4405ADB2C8
:1009DC00C5B1AC4209D2944294BF131BA3189BB26D
:1009EC009C42438103D81B1B9BB29C42FBD9C288FF
:1009FC000468C2F30E02084602FB034142F096F96A
:100A0C00012038BD284638BD30B5950883B0044662
:100A1C00002D5AD06B1E9DB20135A800031F9B08F8
:100A2C00013301EB850013F007051FD0012D18D001
:100A3C00022D13D0032D0ED0042D09D0052D04D07A
:100A4C00062D3ED151F8045B256051F8043B236020
:100A5C0051F8045B256051F8043B236051F8045BAA
:100A6C00256051F8043B236081421BD08C46203119
:100A7C005CF8045B256051F81C3C2360DCF80450E6
:100A8C00256051F8143C236051F8105C256051F836
:100A9C000C3C236051F8085C256051F8043C236041
:100AAC008142E3D112F0030201D103B030BD014603
:100ABC00002501A8019542F039F90199216003B094
:100ACC0030BD51F8043B2360BCE70846EAE700BFA1
:100ADC002DE9F04782B08588BDF828401E1BA34243
:100AEC0038BF06EB4506B6B2074688469DF82C0083
:100AFC00002E00F0B880B542C0F0B980964228BFF5
:100B0C001646A54203D8641BA4B2A542FBD9FA88A9
:100B1C003968731BC2F30E0E2D1B234413FB0EF20C
:100B2C00012815FB0EF31FFA82F91FFA83FAADB2F6
:100B3C000EFB041440F08A80AE4240F2A0802AF0F2
:100B4C00030085B22A4621464046FFF75DFF1AF0A6
:100B5C00030C00F0A980CCF104018AB24A4528BFED
:100B6C004A460CF1FF3014F805A0A9EB020E002345
:100B7C002C4410F0FF0501931FFA8EF98DF804A098
:100B8C005FFA82FE08D061788DF80510BCF1020F77
:100B9C001CBFA1788DF806100EF1FF343B68E0B253
:100BAC00002A00F08A8001300DF1040C10F00707C8
:100BBC0003EB0001AC4429D0012F21D0022F1BD014
:100BCC00032F15D0042F0FD0052F09D0062F03D0DB
:100BDC0013F8012B0CF8012F13F8015B0CF8015FD3
:100BEC0013F8014B0CF8014F13F801AB0CF801AFE3
:100BFC0013F801EB0CF801EF13F8010B0CF8010FD3
:100C0C0013F8017B0CF8017F8B4257D01A469C7865
:100C1C0012F8015BDF7810788CF801501A795D7945
:100C2C008CF80340083313F8024C8CF804708B4298
:100C3C0013F8017C8CF802008CF805208CF8065017
:100C4C008CF807400CF8087FE0D137E0AE4221D990
:100C5C0021465246404642F069F839684A4608EB4C
:100C6C000A0042F063F8304602B0BDE8F0879D42BE
:100C7C0094BF5C1BEC18A4B27C812E463EE716FB9D
:100C8C000EF18AB240462146FFF7BEFE304602B056
:100C9C00BDE8F0870EFB06F22146404642F046F8CE
:100CAC00304602B0BDE8F0873968B9F1000FDAD0F0
:100CBC004A464046FFF7A8FED5E71946019BC8F8FF
:100CCC000030B9F1000FCED0F2E700BF70B5068945
:100CDC00458982B00446ADB201930095B3B2FFF7DB
:100CEC00F7FE6289A18896B233189BB29E424FEAF6
:100CFC00410502D8B3EB410F01DB5A1B93B2638160
:100D0C0002B070BD30B5930883B0002B52D05D1E7D
:100D1C00ACB20134A3001D1FAB08013313F007055F
:100D2C0000EB84041FD0012D18D0022D13D0032DFD
:100D3C000ED0042D09D0052D04D0062D36D10D680A
:100D4C0040F8045B0B6840F8043B0D6840F8045B0A
:100D5C000B6840F8043B0D6840F8045B0B6840F8E6
:100D6C00043BA04215D084460D684CF8045B0B681C
:100D7C0043600D68CCF804500B68C3600D680561C6
:100D8C000B6843610D6885610B68C3612030A0421C
:100D9C00E9D112F0030201D103B030BD0868019013
:100DAC0001A9204641F0C2FF03B030BD0B6840F8EA
:100DBC00043BC4E70446ECE72DE9F04F06460789EF
:100DCC00C0797489B588C00985B0BFB2A4B20ED100
:100DDC00A74236BFC4EB45043C1BE419A0B28542C4
:100DEC0063D84FF00008404605B0BDE8F08FAA422A
:100DFC00A84643D3002B6AD1B6F80690521BC9F310
:100E0C000E0A27460AFB0211B8F1000FEBD0BD42C7
:100E1C003C4603D8621B94B2A542FBD9B6F806B087
:100E2C003068A8EB050CCBF30E0EA5EB040AA4441A
:100E3C001CFB0EF51AFB0EF9012BADB21FFA89FB48
:100E4C001FFA8AFC0EFB040436D0E04541D80EFB99
:100E5C0008F2204641F06AFF08EB0701B0888BB21C
:100E6C009F424FEA400402D8B3EB400F01DB1F1B3B
:100E7C00BBB24046338105B0BDE8F08FA74236BF08
:100E8C00C4EB4500381BC0191FFA80F89044680069
:100E9C0080451ADB6719BF1ABFB2BC4201D8B842F1
:100EAC0013DC3C1AA7B29046AEE72C1A1FFA84F852
:100EBC00904528BF9046A7E7E04516D818FB0EF5DD
:100ECC00AAB22046FFF71EFFC6E790469CE72746CE
:100EDC009AE75A462046019141F028FF0199306863
:100EEC002A46594441F022FFB6E72BF003031FFAC0
:100EFC0083FA524620460191FFF704FF1BF00309C9
:100F0C00019900F08E80C9F1040082B2AA4228BF78
:100F1C002A4609F1FF3BD1F800E004F80AE0AD1ACB
:100F2C001BF0FF03CDF80CE0ADB2D0B254440AD0A4
:100F3C009DF80DC084F801C0B9F1020F1CBF9DF8DB
:100F4C000EC084F802C004AC234400F1FF3A033B0A
:100F5C0030685FFA8AF4002A5CD0013414F0070977
:100F6C0003EB040E00F1FF322FD0B9F1010F26D0A4
:100F7C00B9F1020F1FD0B9F1030F18D0B9F1040F5A
:100F8C0011D0B9F1050F0AD0B9F1060F03D013F83F
:100F9C00012B0270024613F801BB02F801BF13F8D3
:100FAC0001CB02F801CF13F801AB02F801AF13F833
:100FBC00019B02F8019F13F801BB02F801BF13F863
:100FCC0001CB02F801CF734523D09C4693F802A0C5
:100FDC001CF801BB93F803909CF800C082F802C087
:100FEC0082F801B093F804C093F805B082F803A01E
:100FFC00083313F802AC82F80490734513F8019C83
:10100C0082F805C082F806B082F807A002F8089FA3
:10101C00DBD12044002D3FF41FAF2A46FFF772FEB0
:10102C001AE73068F6E700BF30B4B2F5004F04465B
:10103C009DF808000CD8C3F30E03002543EAC0301A
:10104C00E08065812160A2800120258130BC704741
:10105C00002030BC704700BF03894289808899B258
:10106C0093B2994236BFC3EB4003C91AC9181FFA91
:10107C0081FC604528BF6046704700BF03894289E8
:10108C00808899B293B2994236BFC3EB4003C91A18
:10109C00C9188AB2904286BF801A80B2002070476D
:1010AC000289438910B5044692B29BB2FFF788FCC3
:1010BC00B4F80AC0A1881FFA8CF213189BB29A429A
:1010CC004FEA410202D8B3EB410F01DB991A8BB204
:1010DC00638110BD0023FFF7F9BD00BF0123FFF7AB
:1010EC00F5BD00BF38B50589038904464089A2883F
:1010FC009BB280B2834236BFC0EB42001B1A1B1856
:10110C001FFA83FC6245ADB202D8E379D8091AD034
:10111C0095422B4603D3981A83B29342FBD2B4F870
:10112C0006E02068CEF30E0202FB030041F0FEFD48
:10113C00691CA2888BB29D424FEA420004D91D1A49
:10114C00ABB22381012038BDB3EB420FF9DBF6E7DC
:10115C0012B10023FFF730BE1046704712B10123C5
:10116C00FFF72ABE10467047034600224281012039
:10117C001A817047F8B51E4D00272C7806463B4661
:10118C000CE0DCF8002012EBC0042AD06168304679
:10119C00884701372C78FBB29C420CD3191B9C421C
:1011AC0003EB4300DFF858C0124A01EB4103E8D8C7
:1011BC0002EBC304EAE710482B22002141F0C4FDE6
:1011CC004FF0FF37C0F80370C0F80770C0F80B7011
:1011DC00C0F80F70C0F81370C0F81770C0F81B700F
:1011EC00F8BD064E3268D307FAD500BEF8BD00BF75
:1011FC00EC0D0020842F0408F00D0020F0ED00E031
:10120C00E80D0020034B10B1187801F0EBB91878F9
:10121C0001F0FEB9200000202DE9F041264E337874
:10122C00FF2B02D00120BDE8F081244D2B220021A0
:10123C000446234841F088FD281DFFF795FF214AFD
:10124C002148156020B12148AFF300802049086087
:10125C001E4D4FF000082F7843460DE0DCF80010CF
:10126C0011EBCE031FD01A68904708F101082F78B4
:10127C005FFA88F39F420CD3D81BBB42DFF850C0F7
:10128C00144A03EB430E00EB4007E7D302EBC70312
:10129C00E9E72046347001F0EDF9204601F0A2F99F
:1012AC000120BDE8F0810C4E346814F00100BAD076
:1012BC0000BE1846B7E700BF200000201000002039
:1012CC00F00D00201C0E002000000000EC0D002092
:1012DC00E80D0020842F0408F0ED00E0F0B5437811
:1012EC000446981E85B00D46032812D8DFE800F09E
:1012FC0002524538554E31786FF300013170377812
:10130C0000206FF3410737707070327860F38202FF
:10131C0032704F4B1F68B5B93E46284656F8041B31
:10132C00884730462146FFF7DDFE3A680646012025
:10133C0090477EB1474F27B1617820782A46AFF3AA
:10134C00008005B0F0BD381D2146FFF7CBFE0646E8
:10135C00002EEFD140480368DB07EBD500BEE9E770
:10136C003A490A78D007ECD50E78394B6FF38206E0
:10137C001F680E70002DE6D1CEE7344F3B78DE07A8
:10138C00DFD53878324B40F0040139701F68002DDE
:10139C00D9D1C1E72D4E96F800C05FEA4C711FD42D
:1013AC002E4E002530782B4608E03F6817EBCC0119
:1013BC000FD130780135EBB29842C2D39842284F06
:1013CC00284A03EB430CF0D8181A00EB400302EB4D
:1013DC00C3014A69002AECD0616820789047E8E79D
:1013EC0032781B4F6FF382023270002320783F68F3
:1013FC0003930521CDE901338DF804008DF8051018
:10140C00C5B93E46284656F8042B9047304601A9EC
:10141C00FFF768FE3F6806460120B84786B10D49C4
:10142C000029BDD09DF805109DF804002A46AFF3A5
:10143C000080B5E701A9381DFFF754FE0646EDE71D
:10144C0005480368DA07EAD500BEE8E7F00D00208E
:10145C001C0E002000000000F0ED00E0EC0D002060
:10146C00E80D0020842F040838B58B7803F07F003A
:10147C00052806D90B490B68DB0700D500BE0020F8
:10148C0038BD094A094D0C46204691782D78FFF756
:10149C004DFA0028EED021462846BDE8384001F030
:1014AC00B9B900BFF0ED00E0F00D002020000020E5
:1014BC00CB09054801F07F011F3303EB41021044B7
:1014CC000021FFF709BA00BFF00D0020CB09054839
:1014DC0001F07F011F3303EB410210440021FFF7A1
:1014EC0015BA00BFF00D0020164838B501F07F0585
:1014FC0000EB450404EBD114183494F807C05FEAF0
:10150C00CC7006D510480568EA0700D500BE00204F
:10151C0038BD94F807E00D484EF001050078E571F0
:10152C0001F06CFA0028F3D1E379074A60F3000369
:10153C00E371E17960F38201E1711468E307E6D5A8
:10154C0000BE38BDF00D0020F0ED00E020000020C2
:10155C0010B50D4B01F07F0203EB420000EBD114F0
:10156C0094F81FC05FEA8C7300D510BD074B18347C
:10157C00187801F091FAE17941F00202E271E07918
:10158C0040F00103E37110BDF00D0020200000209D
:10159C0010B50D4B01F07F0203EB420000EBD114B0
:1015AC0094F81FC05FEA8C7300D410BD074B18343D
:1015BC00187801F075FAE1796FF34101E171E27984
:1015CC006FF30002E27110BDF00D0020200000202E
:1015DC00A84B1878FF2800F08E812DE9F04FA64D0E
:1015EC008DB02E683446002054F8041B884709A996
:1015FC002046FFF755FD3268074601209047002F23
:10160C0000F0C4809DF8258008F1FF39B9F1070F6F
:10161C0000F2AF80DFE809F09386AD9E7A390A04B8
:10162C000A9B002BDDD00B989847DAE79DF8281021
:10163C00924801F07F0600EB460A0AEBD11B9BF89F
:10164C001F406FF300048BF81F409BF81F206FF3B3
:10165C0082028BF81F20002E00F09B80884F9BF895
:10166C0013C03B789C4580F08B80864E34680CEB25
:10167C004C0214EBC20000F0848007690B9B9DF8B0
:10168C0029209DF82400B847ABE77C4C9DF82480BA
:10169C0094F800E04EF001032370E07F6FF300003C
:1016AC00E077E67F6FF38206E67794F820206FF3FD
:1016BC00000284F8202094F820706FF38207002039
:1016CC0084F8207000F086FC9DF8281001F0600270
:1016DC00602A0BD0402A64D001F01F03012B70D07C
:1016EC00022B00F0DD80002B00F0A280664802681F
:1016FC00D40700D500BE9DF82400002101F0CCF9E0
:10170C009DF82400802101F0C7F96AE75B4E34781C
:10171C00E2077FF566AF5D4900293FF462AFAFF396
:10172C0000805EE75A4E9DF82400FFF723FD00F081
:10173C0047FC002E3FF455AFAFF3008051E79DF806
:10174C0024004E4CFFF716FD00F03AFC9DF82810D3
:10175C00A17046E7494F3B78D9077FF542AF4D481A
:10176C0000283FF43EAF3A78C2F3C000AFF30080DC
:10177C0037E7454F3B68DB077FF533AF00BE30E7FB
:10178C001DD0414D2968C80700D500BE0DB0BDE87D
:10179C00F08F0B9B9DF829209DF8240000F02EFC67
:1017AC001FE73D480028A6D000F014FC40460AAACA
:1017BC000121AFF3008000287FF413AF9BE737487B
:1017CC005BE79DF82C000F2895D820442C4C90F802
:1017DC0003902678B14580F0CD802A490A6809EB40
:1017EC00490A12EBCA0786D0F86800F0F3FBFB68D5
:1017FC000AAA01214046984700287FF4F2AE9DF8D2
:10180C00284014F060067FF476AF9DF829B0ABF158
:10181C000A07012F3FF66FAF00F0DCFB9DF82900A3
:10182C000A2800F0A6810AA9404600F077FBD8E60A
:10183C00202A61D0002A7FF459AF9DF8290009288D
:10184C003FF654AF01A252F820F000BFE719000890
:10185C00971A0008F91600087B1A0008F9160008F8
:10186C00611A0008091A0008F9160008CF190008B7
:10187C009B190008200000201C0E0020F00D0020F9
:10188C00EC0D0020E80D0020F0ED00E00000000061
:10189C00000000000000000000000000842F04087D
:1018AC009DF82C1001F07F03052B3FF61FAF04EBC6
:1018BC00430CB54E0CEBD11E30789EF8139081453D
:1018CC004FEA43034FEAD1174FD2B048066809EBF1
:1018DC00490A06EBCA0672B3002E3FF40CAFF0684F
:1018EC0000F078FBF66840460AAA0121B0470028B0
:1018FC007FF477AEFFE670479DF82C000F283FF67B
:10190C00FAAEA14A2044167890F803C0B44535D3FA
:10191C007FF4F1AE9E4CE06800F05CFBE36840465F
:10192C000AAA0121984700287FF45BAEE3E6002A5F
:10193C007FF4E1AE16469DF8292002F0FD00012847
:10194C0000F0F880002A7FF4D1AE23443B4440469B
:10195C0093F81F800DF12202C8F3400402230AA958
:10196C00ADF8224000F0F4FA3BE6E0D1884E002AB4
:10197C00B5D1E0E77FF4BFAE854F35E783490F68FB
:10198C000CEB4C0B17EBCB043FF4B5AEC3E79DF857
:10199C002A2094F801B000925A450BD06378002BA2
:1019AC0040F04A820099002940F0FC80794808B147
:1019BC00AFF30080009F677040460AA900F0AEFAB2
:1019CC000FE694F801908DF82290404601230DF11A
:1019DC0022020AA900F0BCFA03E621788C08C1F3B4
:1019EC00401304F002071F43404602230DF122026C
:1019FC000AA9ADF8227000F0ABFAF2E5BDF82A1096
:101A0C000B0A03F1FF3EC8B2BEF10E0F3FF673AEE8
:101A1C0001A151F82EF000BFDF1A0008B31A00081C
:101A2C00311B000803170008031700080B1B0008E4
:101A3C00B31A00080317000803170008031700085F
:101A4C000317000803170008031700080317000802
:101A5C00F71A00080AA800F0C3FA9DF82A104046AD
:101A6C0001F008F8267846F002012170B9E5BDF8BE
:101A7C002A30012B7FF43FAE2278404642F0080713
:101A8C000AA9277000F04AFAABE5BDF82A00012834
:101A9C007FF431AE267840466FF3C3060AA9267050
:101AAC0000F03CFA9DE5022B00F0E7813A4F002F45
:101ABC003FF421AEAFF300800246002A3FF416AE8D
:101ACC00538840460AA900F043FA00287FF489ADF8
:101ADC0011E6FEF709FD122302460AA9404600F062
:101AEC0037FA00287FF47DAD05E62C4800283FF43A
:101AFC0002AEAFF3008002460028E1D1F6E5284A99
:101B0C00002A3FF4F8ADAFF30080024600283FF402
:101B1C00F2AD137840460AA900F01AFA00287FF4B7
:101B2C0060ADE8E5BDF82C10FEF7E6FC0246002897
:101B3C00EFD1E0E5BDF82A3023B9012A404615D093
:101B4C00FFF706FD002E3FF44CADF06800F042FAB2
:101B5C000121F7680AAA4046B847002000F03AFA7B
:101B6C0094F82010CE073FF53CAD5CE6FFF710FD76
:101B7C00E8E70AA9404601230DF122028DF8226004
:101B8C0000F0E6F92DE500BFEC0D0020E80D00207B
:101B9C00842F04080000000000000000000000007A
:101BAC00000000004A1ED0B2FEF7A2FC002800F094
:101BBC003C814778022F40F03881C67994F800C0F8
:101BCC00C6F34013C6F3801E190141EA4E172CF0E0
:101BDC00300217432770468800F1090B3044CDE9D9
:101BEC000108019B5B4540F238819BF801200B2AD0
:101BFC0000F02B814FF0010A042A40F01681019E5F
:101C0C00A04BA6EB0B004FF0000819781FFA80F9D7
:101C1C00464616E0036813EBCC0700F00681BB6860
:101C2C0002984A4659469847082808F1010801D9F4
:101C3C00814512D2934801785FFA88F6B142C0F020
:101C4C00F480721AB1429048904F06EB460C02EBAE
:101C5C004201DFD807EBC107E1E7BAF1010F0490AD
:101C6C0000F00481BAF1000F00F0D1809BF802E083
:101C7C00F146A6440AF1FF339EF80300FF2803F057
:101C8C00070140F0D280012292458EF8036040F2A9
:101C9C00BE804FB2002960D0974250D0022F43D063
:101CAC00032F35D0042F27D0052F19D0062F0BD09A
:101CBC0009EB020C54FA8CF898F80330FF2B40F027
:101CCC00B48088F80360124409EB020054FA80FED9
:101CDC009EF80310FF2940F0A8808EF803600132B3
:101CEC0009EB020754FA87FC9CF80330FF2B40F0F9
:101CFC009C808CF80360013209EB020054FA80F8E6
:101D0C0098F80310FF2940F0908088F803600132A6
:101D1C0009EB020754FA87FE9EF80330FF2B40F0C4
:101D2C0084808EF80360013209EB020054FA80FCC7
:101D3C009CF80310FF2978D18CF80360013209EB71
:101D4C00020754FA87F898F80330FF2B6DD1013253
:101D5C00D0B2824588F8036059D9CDF80CB009EBA4
:101D6C00020354FA83F3511C02F1020B02F1030833
:101D7C0002F1040E02F1050C971DD01D05930832DB
:101D8C00DB780693D3B20793069B4944CB44C844F3
:101D9C00CE44CC444F444844FF2B54FA81F154FABE
:101DAC008BFB54FA88F854FA8EFE54FA8CFC54FAD5
:101DBC0087F754FA80F038D1059BDE70CB78FF2B77
:101DCC0033D1CE709BF80310FF292ED18BF8036012
:101DDC0098F80330FF2B28D188F803609EF8031085
:101DEC00FF2922D18EF803609CF80330FF2B1CD105
:101DFC008CF80360F978FF2917D1FE70C778FF2F94
:101E0C0013D1C67007988245A9D8DDF80CB0049F91
:101E1C001F483A4659463346FEF7BCFD194A92F81C
:101E2C0000A0B245BB44BFF4DCAE1A4C2668F707E1
:101E3C007FF55CAC00BE59E4404600F093FDA678FB
:101E4C004046FFF797F9A670ACE59BF800909BF81D
:101E5C0003A0CB449BF80120CEE60F49DDF80880A7
:101E6C0000293FF4A7ADAFF30080A3E5BA680B4F90
:101E7C00BA4208BF4FF0020AF8E6FEF739FB0246F9
:101E8C001BE600BFEC0D0020E80D0020842F040899
:101E9C00030E0020F0ED00E00000000059220008C5
:101EAC001C4A70B5D189958992F900606B1A9BB266
:101EBC00402B28BF4023002E82B0044609DB8D4204
:101ECC0020D0154A0021204602B0BDE87040FFF733
:101EDC000BBB8D420ED091680F4801931A4640F00F
:101EEC0025FF0D4A019B8021204602B0BDE87040C1
:101EFC00FFF7FABA80210022204602B0BDE87040FC
:101F0C00FFF7F2BA00210A46204602B0BDE8704045
:101F1C00FFF7EABA200E0020340E00200B4630B436
:101F2C000A4C496805461868224603C293F900001A
:101F3C0000239842C4E902332846A8BF802130BC54
:101F4C00B8BF19461A46FFF7CFBA00BF200E0020C3
:101F5C00F8B50C46184D496807462068AA602E460D
:101F6C0003C60021E981E688B34228BF33463846D0
:101F7C00AB8136B103B1B2B1FFF792FF68B101206A
:101F8C00F8BD94F90030002BACBF80210021334602
:101F9C003246FFF7A9FA0028F1D108490A68D3079D
:101FAC0005D500BEF8BD05480468E10701D4002042
:101FBC00F8BD00BE1046F8BD200E0020F0ED00E08C
:101FCC00034B0022C3E90022C3E902221A617047C5
:101FDC00200E0020014B1861704700BF200E00201E
:101FEC000346054A006859689446ACE80300002093
:101FFC00C2E90200704700BF200E0020F8B52E4C3D
:10200C002578C909B1EBD51F1F46064614D033B14C
:10201C002A480568EA0700D500BE0020F8BD284A0A
:10202C0012B12146AFF30080236903B3224A304634
:10203C00032198470120F8BD94F90020002A06DB03
:10204C00A0680028E9D01F491A4640F06FFEE389CA
:10205C00A168E0883B449DB23944A842E581A16067
:10206C0007D03F2F05D93046FFF71AFFA8B1012042
:10207C00F8BD276927B1104A02213046B84790B104
:10208C0094F9004000239C42ACBF80211946304695
:10209C001A46FFF729FA0028E9D108490E68F30718
:1020AC00BBD500BEF8BD0146304600F0F5FC30460D
:1020BC00802100F0F1FCDAE7200E0020F0ED00E0CA
:1020CC0000000000340E002070B500F1100504462D
:1020DC002846FEF7D3FF3F2800D870BDA17800201A
:1020EC00FFF7E6F90028F8D02846FEF7C7FF3F288F
:1020FC0008D9A17804F1A8024023BDE87040002063
:10210C00FFF7F2B9A1780020BDE87040FFF7DEB907
:10211C0070B500F11C0504462846FEF79DFF08B972
:10212C00002070BD61780020FFF7C2F90028F7D0BD
:10213C0004F1E806284631464022FEF7CBFF05465F
:10214C0060B10346617832460020FFF7CDF940B903
:10215C00054B1968CB07E3D500BE70BD6178FFF75E
:10216C00B5F9284670BD00BFF0ED00E038B54FF46E
:10217C0094720B4C02FB00F3E518A87800B938BD3B
:10218C001033E0180422FEF7A5FF04462846FFF79B
:10219C009BFFA4F10400B0FA80F1480938BD00BFE0
:1021AC00C47F012070B54FF494730D4C03FB00F009
:1021BC00261872780AB9002070BD1C3004442046E1
:1021CC000D46FEF75BFF0328F5D92946042220466D
:1021DC00FEF7BEFF3046FFF79BFF012070BD00BF2E
:1021EC00C47F012030B50E4C83B000210D464FF456
:1021FC009472204640F0A8FD04F1280104F110006F
:10220C00009501234022FEF70FFF009504F16801B1
:10221C0004F11C0001234022FEF706FF03B030BD81
:10222C00C47F012010B5084C002304F11000C4E950
:10223C000033C4E90233FEF797FF04F11C00BDE83C
:10224C001040FEF791BF00BFC47F01202DE9F04381
:10225C004B79012B83B002D18C79012C04D0002551
:10226C00284603B0BDE8F083CD79002DF7D10646A2
:10227C0008780C1881B26378242B0BD1914202D9C7
:10228C00EDE78A42EBD327783C440F446378242B48
:10229C00B9B2F6D0042BE2D16579012DDFD1A0794A
:1022AC000328DCD1E579002DD9D1DFF89C8098F892
:1022BC00017098F8029057EA090705D0214A166870
:1022CC00F307CCD500BECBE794F802C088F800C069
:1022DC0094F80090207901EB090E1FFA8EF5A144B9
:1022EC0038B924E099F800C0B8426544ADB2E14475
:1022FC001DD9AA421BD399F80130052BF2D14946BE
:10230C0030460192FFF7B0F8019AA0B199F802009B
:10231C00C10914BF88F8010088F8020099F8001070
:10232C00207901370D44FFB2ADB28944DAE7064893
:10233C00FFF7CAFE94E7034C2268D2078FD500BE84
:10234C0005468DE7F0ED00E0C47F012000207047CA
:10235C00F8B5224EB2788A421C4611D106F1A8017A
:10236C009AB206F11000FEF7F3FE1D4911B10020E0
:10237C00AFF300801948FFF7A7FE01252846F8BDEA
:10238C0073788B4208D01748056815F00105F5D015
:10239C0000BE00252846F8BD07463046FFF7B8FEBC
:1023AC0010B101252846F8BD06F11C00FEF754FEBD
:1023BC000028F6D1002CF4D014F03F04F1D1717840
:1023CC003846FFF775F805460028EAD0717838468C
:1023DC0023462246FFF788F8D0E700BFC47F0120D0
:1023EC0000000000F0ED00E0F0B400013F4DBDF83E
:1023FC0010402E5869B93E4C3E4F04EB021C37F886
:10240C001200BCF80A40844228BF0446051B27F87A
:10241C001250012A31D006F5306C0CEB41104F01F3
:10242C00026902F060450561026942EAC3431C433C
:10243C0004615CF8074044F004404CF807005CF879
:10244C00075005F44022B2F5802F01D0F0BC704744
:10245C00274B03EB41110C7B012CF7D1D6F8086804
:10246C005CF8070016F4807F14BF4FF080564FF0D5
:10247C00005630434CF80700E8E706F5106C0CEBFF
:10248C00411744EAC3454A013D615CF8023043F010
:10249C0004404CF802005CF8027007F44025B5F5D6
:1024AC00802F0BD0002CD1D0D6F83428012404FA7C
:1024BC0001F11143C6F83418F0BC70470C4B03EB18
:1024CC004110077F012FEDD1D6F808585CF8023087
:1024DC0015F4807F14BF4FF080554FF000552B43FF
:1024EC004CF80230002CB1D0DEE700BF9C2F040862
:1024FC00880E0020840E00200001384B1B5801F080
:10250C007F00C90930B42ED103F5306120B90B68B6
:10251C0032BB30BC0B60704701EB40110C68002CD7
:10252C00F5DAD3F8045845F40070C3F804085C6974
:10253C002006FCD52A4D0868002A14BF2A464FF005
:10254C00804202430A608A689207FCD502248C60A0
:10255C00D3F8041841F48065C3F8045830BC7047B4
:10256C0043F40013D5E703F5106C98B9DCF80010B0
:10257C00002A14BF4FF002644FF000642143CCF8E2
:10258C000010800140F020041C611A699406FCD4F0
:10259C0030BC70470CEB401CDCF80040002CE5DA3A
:1025AC00DCF8004044F00061CCF80010DCF8085076
:1025BC006C06FBD50A49DCF80040002A14BF0A4619
:1025CC004FF080422243CCF80020DCF8082095071D
:1025DC00FBD50225CCF80850D3E700BF9C2F04088C
:1025EC0000002040084B03EB0010426851B2002958
:1025FC0008DB02F01F0C4B090448012202FA0CF113
:10260C0040F82310704700BF9C2F040800E100E045
:10261C000A4B03EB0010426851B200290DDB4B0949
:10262C0002F01F0C06482033012202FA0CF140F88C
:10263C002310BFF34F8FBFF36F8F70479C2F04088D
:10264C0000E100E00001044B1A58D2F8041821F004
:10265C000200C2F8040870479C2F04080001044BC8
:10266C001A58D2F8041841F00200C2F80408704756
:10267C009C2F040838B55A495A4A03010546CC58D0
:10268C00206C030C190491420CD0574A914209D08A
:10269C0002F58030814205D0544D2C68E00700D5FE
:1026AC0000BE38BD2846FFF7D9FFE36843F0400170
:1026BC00E160A26B42F48030A063236943F0010116
:1026CC0021612269D107FCD420690028FCDA484A30
:1026DC00E3684849106823F4705C4CF4A0538842BA
:1026EC00E36045D34FF4C050E36823F470520243C7
:1026FC00E260D4F8001841F00300C4F80008D4F8E4
:10270C00003E23F00F02C4F8002EE16841F00700F0
:10271C00E060E36823F0C04242F08041E160206851
:10272C0020F0D00E4EF0C0032360D4F800184FF404
:10273C00846241F00400C4F80008226123699A06FF
:10274C00FCD4102121612269D306FCD46069636931
:10275C00294A034363616168606808436060A26151
:10276C00A36843F001022846A260FFF76BFF38BD57
:10277C00224A90421FD8224988421FD2214B9842AC
:10278C001FD8A3F5DB1EAEF5BA5C60451CD8ACF5C2
:10279C00B712A2F55871884219D81B4B984219D21E
:1027AC001A4A904219D21A4988422CBF4FF46050F1
:1027BC004FF4705098E74FF4E05095E74FF4005009
:1027CC0092E74FF410508FE74FF420508CE74FF402
:1027DC00305089E74FF4405086E74FF4505083E770
:1027EC009C2F04080000544F00003155F0ED00E020
:1027FC00280000200048E80116380080DF9DA30166
:10280C0000366E013FA44C01807306010024F400D5
:10281C00C0E1E4002DE9F0414E4D8B7805EB00173B
:10282C0003F07F063C7AB44240F287804A4AB1F802
:10283C0004E000014FEA460C0CEBD3182D5802EBC8
:10284C000810CEF30A02428191F806E080F80CE001
:10285C00D01C4FEA900EDB09704694463ED0DFF850
:10286C00FCC06B6ABCF80040D7F80C8004EB0E0778
:10287C001F44B7EB980F4FEA98035ED8204480B200
:10288C0006F13F0405EB84081B1A43EA0E47C9788E
:10289C00C8F8047005EB461801F0030ED8F800399F
:1028AC00ACF80000B00540EA8E477446012C43EAB0
:1028BC00020347F4004243EA020314BF4FF0805274
:1028CC0000221343C8F80039D5F81C18012000FA6F
:1028DC0006F60E43C5F81C68BDE8F0817444686ABE
:1028EC0063000F33984208D21C4CFF68B4F8008088
:1028FC009844B8EB970F28D86B62C97805EB461053
:10290C0001F00303012BD0F8004B4FEA834118BFB1
:10291C0042F0805C41EA0C02224342F40043C0F8CE
:10292C00003B06F110070120D5F81C6800FA07F1EE
:10293C003143C5F81C18BDE8F081094C2268D30757
:10294C0000D500BE0020BDE8F081054D2868C20707
:10295C00F8D5F6E79C2F0408880E0020740E002092
:10296C00F0ED00E0224B020103EB00109A58007AC4
:10297C004FF001110128C2F81C1833D91D4900234E
:10298C000228C2F8203B4B85C2F820394B8729D04E
:10299C000328C2F8403BA1F84A30C2F84039A1F8EC
:1029AC005A301FD00428C2F8603BA1F86A30C2F834
:1029BC006039A1F87A3015D00528C2F8803BA1F80F
:1029CC008A30C2F88039A1F89A300BD00628C2F8A8
:1029DC00A03BA1F8AA30C2F8A039A1F8BA3001D0B6
:1029EC00C2F8C03B04484FF0100CA0F800C0704770
:1029FC009C2F0408880E0020740E0020F0B501F006
:102A0C007F061A4F740004EBD11507EB05144FEA3F
:102A1C00051E4FF0000C47F80E2083B0CD09238122
:102A2C00C4F804C0AEB16189B3FBF1F201FB1237FB
:102A3C00BCB291B254B1013189B200932A460B4613
:102A4C003146FFF7D1FC012003B0F0BD002BF4D1CF
:102A5C00F1E7074F0093314627F815302A4601233A
:102A6C00FFF7C2FC012003B0F0BD00BF880E0020B0
:102A7C00840E00200301074AD258D2F8003823F400
:102A8C00FE6C4CEA01110023C2F800181A46802192
:102A9C00FFF7B4BF9C2F04080122FFF72DBD00BF28
:102AAC00114B000101F07F021858C90900EB421CC0
:102ABC000CD1DCF8001B21F40013CCF8003BDCF843
:102ACC00000B40F08052CCF8002B7047DCF800195A
:102ADC0021F40013CCF80039DCF8000940F08052E6
:102AEC00CCF80029704700BF9C2F04082DE9F04F4B
:102AFC00DFF8E4824FEA001A8BB058F80A400390D2
:102B0C00A36967691F40FA04A34608EB001500F19E
:102B1C00AB82BE041FD54FF400516161D4F8086834
:102B2C00039DC6F3410316F0060F1CBF023BB3FA1C
:102B3C0083F34FF0000214BF5B090223012107A8A5
:102B4C00CDE9072209928DF81C508DF820308DF8B4
:102B5C001D10FEF7C3FB3D0500F15682002FC0F29D
:102B6C006882780704D56568690700F12784656079
:102B7C003A071AD59148067808256560002E40F072
:102B8C002D84A16921F00803A3610DF11C0900211A
:102B9C000791C9E90111039A8DF81C2003264846B8
:102BAC0001218DF81D60FEF799FBFB0654D5A06939
:102BBC00049720F01005A561276AC7F3434909F172
:102BCC00FF3C07F00F06C7F30A15BCF1050F4BD8F5
:102BDC00DFE80CF04F755E9C4A56794E049F3378B3
:102BEC00A3B308EB0A0999F80820002A00F0D68450
:102BFC007449012A4D8920D9B1F82AC0654538BFDE
:102C0C006546022A19D0B1F84A40A54238BF25467C
:102C1C00032A12D0B1F86A309D4238BF1D46042AEF
:102C2C000BD0B1F88A904D4538BF4D46052A04D0DB
:102C3C00B1F8AA00854238BF0546A80810444200E6
:102C4C000F3291B20025CBF824103570DBF81860E8
:102C5C0046F01004CBF818403C0300F1BF807C0315
:102C6C005DD40BB0BDE8F08F57490D68EE0700D569
:102C7C0000BEDBF80440E506AFD558F80A409BE7E8
:102C8C0004F58054514B21682268C3E90012F0E727
:102C9C00002EEED1002DECD1256C4D4B9D42E8D988
:102CAC00D4F8081B48F2200911EA090FE1D011F001
:102CBC00200F0CBF01212121C4F8081BD9E7DFF834
:102CCC00049109EB461C7701DCF80400002800F0A5
:102CDC008D822A4604F58051FEF740FA09EB070C69
:102CEC00BCF80A10A942C4D93C44BCF80850D4F82A
:102CFC00104B2F1BBBB2ACF80830002EB9D1354AA3
:102D0C00108816801E1AA9F80860B2E704EB46106A
:102D1C00D0F8107B47F0C046C0F8106BA9E708EB61
:102D2C000A0B58F80A509BF8089005F510670497A1
:102D3C00B9F1000F95D00024224EA046D5F8187892
:102D4C00E740F80730D5049800EB4417BB68D90767
:102D5C001FD50123BB6024B91E494888002840F0C8
:102D6C0017830023B6F818B0039A089368F07F080D
:102D7C004FF0070A07A8012107938DF820808DF8E2
:102D8C0021308DF81C20CDF824B08DF81DA0FEF755
:102D9C00A5FAB9680B0607D5D5F834380120A04040
:102DAC001842059040F0328301345FFA84F8C14533
:102DBC0006F12006C2D80BB0BDE8F08F800E0020C3
:102DCC00760E0020880E0020F0ED00E0780E00203A
:102DDC000930544F840E00209C2F040808EB0A0C79
:102DEC0058F80A509CF80890B9F1000F3FF439AF2D
:102DFC00D5F8183809F1FF3000F00108D8034FF06E
:102E0C00000A3ED5D5F8082B10071BD5120400F18B
:102E1C00AF830822904CC5F8082BD4E900010DF1C2
:102E2C00280C4CE90201039B8DF81C304FF0000E6E
:102E3C004FF0060B012107A8ADF81EE08DF81DB070
:102E4C00FEF74CFAD5F8080BC1071AD583490E8842
:102E5C000121C5F8081B002E40F09683804A039B85
:102E6C00148909944FF0070E07A8CDE907668DF871
:102E7C001C308DF820A08DF821608DF81DE0FEF738
:102E8C002DFA0124A145264640F2B780B8F1000F77
:102E9C0040F02382DDF80C80D5F8180804F11003FB
:102EAC00D840C1074ED505EB441B4FEA441ADBF85A
:102EBC00081B0A0721D5080440F15383286C694B81
:102ECC0048F20802984298BF0822634905EB0A0EA3
:102EDC00D1E90001CEF8082B0AAA02E903004FF051
:102EEC00000C4FF0060B012107A88DF81C80ADF8E3
:102EFC001EC08DF81DB0FEF7F1F905EB0A00D0F8F5
:102F0C00083BD9071ED50123C0F8083B24B9534907
:102F1C000A88002A40F045835148824400210891D8
:102F2C000791BAF808308DF821104FF0070A07A85E
:102F3C00012109938DF81C808DF820608DF81DA05F
:102F4C00FEF7CCF9D5F8186804F11102D64001341B
:102F5C00F3075FFA84FB4BD505EB441C6601DCF8E8
:102F6C00083B180721D51B0440F1F982286C3D4918
:102F7C0048F20802884298BF0822374B93E80300B6
:102F8C00AB190DF1280CC3F8082B4FF0000E4CE9CF
:102F9C0002014FF0060A012107A88DF81C80ADF83C
:102FAC001EE08DF81DA0FEF799F9A819D0F8081BA2
:102FBC00C9071DD50123C0F8083B24B9274A10883E
:102FCC00002840F0F582264B1E4400210891079101
:102FDC0036898DF821104FF0070E07A801210996AC
:102FEC008DF81C808DF820B08DF81DE0FEF776F979
:102FFC000134E6B2B1453FF64FAF7E037FF531AEFB
:10300C0005F51064049496E600214FF400606061AD
:10301C00039E0991CDE907114FF0040E07A8012179
:10302C008DF81C608DF81DE0FEF758F9002FBFF6E7
:10303C0098AD4FF0004363610025039A099505266E
:10304C0007A80121CDE907558DF81C208DF81D60CE
:10305C00FEF744F985E500BF780E0020840E0020B1
:10306C00880E00200930544F4FF4805262610021C9
:10307C00C022CB482E7A3FF067FED4F80038C948FE
:10308C00C949002223F4FE65C4F8005802700A7086
:10309C00002E7DD0D4F8003B012E43F00060C4F824
:1030AC00000B75D9D4F8201B022E41F00065C4F832
:1030BC00205B6DD0D4F8402B032E42F00063C4F893
:1030CC00403B65D0D4F8600B042E40F00061C4F88E
:1030DC00601B5DD0D4F8805B052E45F00062C4F80F
:1030EC00802B55D0D4F8A03B062E43F00060C4F8DA
:1030FC00A00B4DD0D4F8C01B072E41F00065C4F8CE
:10310C00C05B45D0D4F8E02B082E42F00063C4F825
:10311C00E03B3DD0D4F8000C092E40F00061C4F81F
:10312C00001C35D0D4F8205C0A2E45F00062C4F89F
:10313C00202C2DD0D4F8403C0B2E43F00060C4F86A
:10314C00400C25D0D4F8601C0C2E41F00065C4F85E
:10315C00605C1DD0D4F8802C0D2E42F00063C4F8B6
:10316C00803C15D0D4F8A00C0E2E40F00061C4F8B1
:10317C00A01C0DD0D4F8C05C0F2E45F00062C4F832
:10318C00C02C05D0D4F8E03C43F00060C4F8E00C4F
:10319C0008EB0A097600D9F80C10814D8A08A2F1C7
:1031AC00100C09212F364FF001104CF48013C4F889
:1031BC001C08C4F81418C4F810186662A362D4F87A
:1031CC0000697A4926F00302C4F80029D4F8100BE0
:1031DC0040F0C043C4F8103BA66940226A8346F411
:1031EC0040206A811025A0610D8092E4AB085A1E24
:1031FC0059F8070091B2002B00F0E18101314FEA40
:10320C00810CACF104039A0802F1010C00EB810172
:10321C001CF007030591024604F5805121D0012BC7
:10322C0019D0022B14D0032B0FD0042B0AD0052B52
:10323C0005D0062B40F0A4810B6842F8043B0B68C8
:10324C0042F8043B0B6842F8043B0B6842F8043B21
:10325C000B6842F8043B0B6842F8043B059B9A420E
:10326C0020D0DDF814C0D1F800E01346203243F82A
:10327C0004EBD1F800E042F81CECD1F800E0C3F804
:10328C0004E00B6842F8143C0B6842F8103C0B68E5
:10329C0042F80C3C0B6842F8083C0B6842F8043CC2
:1032AC006245E0D115F003015FFA85FC11D004F5FD
:1032BC008050059B02681A701CF0020F18461CBF48
:1032CC00100A5870032902BF059B120C9A7059F80A
:1032DC000700284449F8070000E5D5F818088303CF
:1032EC0050D5D5F8281B08074FF0200A22D50B041F
:1032FC0040F16781286C2E4B48F20802984298BF27
:10330C0008222C4903C905EB0A080DF1280BC8F853
:10331C00082B4BE9020103988DF81C004FF0000CB0
:10332C004FF0060E012107A8ADF81EC08DF81DE068
:10333C00FDF7D4FF05EB0A0202F60838D2F8083B79
:10334C00D9071FD50123C8F8003024B91A490888B9
:10335C00002840F03881124A92440021CDE907112F
:10336C00BAF80830039A8DF821104FF0070A07A815
:10337C00012109938DF81C208DF820608DF81DA07B
:10338C00FDF7ACFF0134E6B2B1453FF683AD34E650
:10339C0000901A4603982146FFF726F8F9E400BF7F
:1033AC00880E0020760E0020800E0020740E002067
:1033BC000930544F780E0020840E00200021CDE9F6
:1033CC000711039B0991022207A801218DF81C30DB
:1033DC008DF81D20FDF782FFFFF7C9BBD4F8082834
:1033EC00039B0DF11C090025C2F30D264FF0030CB5
:1033FC004846012107950896C9F808508DF81C30ED
:10340C008DF81DC0FDF76AFFFFF7C1BB3A69C2F327
:10341C00C948B8F1000F00F0948005F5805C0CEB06
:10342C00043B4FF0000A09E05946FDF757FE0AF13C
:10343C00010A1FFA8AF2904540F283803969B6F886
:10344C001AC0B869634B8AB2624528BF624603EA68
:10345C0080018A4275D870690028E5D1930803F180
:10346C00FF3ED6F810C01FFA8EF0002B00F09480AF
:10347C00013081000B1F9B08013313F007030CEB89
:10348C008000614625D0012B1DD0022B17D0032BB9
:10349C0011D0042B0BD0052B05D0062B63D151F882
:1034AC00043BCBF8003051F8043BCBF8003051F81A
:1034BC00043BCBF8003051F8043BCBF8003051F80A
:1034CC00043BCBF8003051F8043BCBF80030814280
:1034DC0023D08E4620315EF8043BCBF8003051F8F7
:1034EC001C3CCBF80030DEF80430CBF8003051F83F
:1034FC00143CCBF8003051F8103CCBF8003051F8AC
:10350C000C3CCBF8003051F8083CCBF8003051F8AB
:10351C00043CCBF800308142DBD112F003015FFA9E
:10352C0082FE0BD01EF0020F037818BF038803290C
:10353C0004BF817843EA0143CBF800306244326126
:10354C0075E73F69C7F3120000287FF42DACD5F85E
:10355C003418059B21EA0302C5F8342824E4082218
:10356C000BE50822B1E451F8043BCBF8003096E7A8
:10357C00296C194E48F20802B14298BF082249E45E
:10358C000B6842F8043B57E600220B460398009662
:10359C001146FEF729FF74E46046BEE71046FFF7BC
:1035AC004DBB0092214622464046FEF71DFFC9E462
:1035BC000090224621464046FEF716FF18E505907E
:1035CC0070E608229DE60090224603982146FEF7FD
:1035DC000BFFD7E6FCFF03000930544F016861B1C3
:1035EC000A4601E03A2B05D012F8013B202BF9D802
:1035FC00002070478B1C9A4202D04FF0FF3070476E
:10360C0009783029F9D102600020704738B50D4691
:10361C0040B1036804462BB11A781AB18088D98856
:10362C00884203D0092000242C6038BD58783FF024
:10363C0023F910F00100F5D12468F5E770B40268A5
:10364C001378202B7FD0052B08BFE5234B72012369
:10365C005078202805D0CC18052808BFE5206072CA
:10366C0001339578202D05D0CE18052D08BFE52502
:10367C0075720133D078202805D0CC18052808BFE6
:10368C00E520607201331579202D05D0CE18052D5B
:10369C0008BFE525757201335079202805D0CC1868
:1036AC00052808BFE520607201339579202D05D0DF
:1036BC00CE18052D08BFE52575720133D079202869
:1036CC0005D0CC18052808BFE52060720133107AAC
:1036DC00202809D05C1CCD1805280C4408BFE52017
:1036EC002E266E7202336072507A202805D0CC18C8
:1036FC00052808BFE52060720133957A202D05D08E
:10370C00CE18052D08BFE525757201330B4400203A
:10371C00587292F80BC00CF03F030B72D48B557F90
:10372C00167F45EA042046EA00230B60D47D957D84
:10373C0045EA0426CE8092F819C0127E42EA0C208B
:10374C0070BC88807047002382E700BF70B500F121
:10375C003006C26A04463146407801233FF070F9C6
:10376C0060B9E16A236AA269E0700546C81A904202
:10377C0002D2A378022B04D0284670BD012528461E
:10378C0070BD0A446078314601233FF059F9F3E7E4
:10379C00F8B5C37805460E463BBB6869B11E821E60
:1037AC00914228D26C89AF6A01FB047605F130078F
:1037BC00EE6238464FF4007200213FF0C5FA6B8977
:1037CC001C4673B1002403E06B890134A34208D971
:1037DC0068780123321939463FF032F90028F3D0CA
:1037EC006B89E01A18BF0120F8BDFFF7AFFF002866
:1037FC00D3D00120F8BD0026D8E700BFF8B5C378B8
:10380C0004465BB9207803280FD00022607811465B
:10381C003FF0F6F9003818BF0120F8BDFFF796FF0E
:10382C000028FAD120780328EFD12579012DECD18D
:10383C004FF40072002104F130003FF085FA01468C
:10384C00D4E90306370AE26984F819722B46070A91
:10385C00350C84F8186284F81A52360E050C84F86C
:10386C001C0284F81D72000EAA27013284F81B6218
:10387C004FF0550C84F81E5284F81F02612652201A
:10388C0084F82F7241257227E26284F8300084F8A4
:10389C00310084F82EC2607884F8326084F81762A4
:1038AC0084F8335084F8165284F8147284F8157224
:1038BC003FF0C6F800222271A7E700BF38B5C378E5
:1038CC0004460D466BB92A466078012304F1300199
:1038DC003EF0D4FF00281CBF4FF0FF350120E562FD
:1038EC0038BDFFF733FF0028EDD038BD38B54FF0A9
:1038FC00FF33002299420446C270C36203D0FFF723
:10390C00DDFF002844D194F8301094F82F0294F87D
:10391C002E52EB2945EA00250AD01831CAB2012AE9
:10392C0006D94AF655218D4214BF0320022038BD1A
:10393C004AF6552C654511D094F83C0094F83B3070
:10394C0094F83D1043EA002C0CF1FF3212EA0C0FF4
:10395C0002D1BCF5007F1DD0032038BD2C490822B4
:10396C0004F182003FF0D4F90028E0D094F83CE058
:10397C0094F83B3094F83D1043EA0E2C0CF1FF32D6
:10398C0012EA0C0F02D1BCF5007F3AD0022038BDF0
:10399C00042038BD0029DFD0481E0842DCD194F841
:1039AC003F1094F83E3053EA0123BAD094F840C04B
:1039BC000CF1FF32012AB4D894F8420094F841106B
:1039CC0051EA0023ADD094F844C094F8433043EA54
:1039DC000C227F2A0CD8B4F8520094F8511094F8A9
:1039EC0050C041EA00234CEA0322B2F5803F98D341
:1039FC0094F8470094F8464054EA002391D00020F4
:103A0C0038BD0029C2D0481E0842BFD1C7E700BF4D
:103A1C00BC2F040838B505688169EB6A99420446E5
:103A2C0003D02846FFF74AFF28B9E269E5210124B3
:103A3C0011700020EC7038BD2DE9F8430378022B8F
:103A4C0004460D46164606D0032B52D0012B1BD034
:103A5C000220BDE8F883016AC26A01EB152191428C
:103A6C0003D0FFF72BFF0028F3D1680000F4FF7799
:103A7C0004F13003DD19DE55C6F307210126697008
:103A8C00E6700020BDE8F883026AC36A01EB5107B7
:103A9C0002EB5721994203D0FFF710FF0028D8D131
:103AAC00EB0704F1300907F10108C7F3080043D50F
:103ABC0019F8005005F00F0343EA061209F800202C
:103ACC00206AE76A00EB58210125B942E57004D061
:103ADC002046FFF7F3FE0028BBD1C8F3080CCC44FA
:103AEC00C6F3071701218CF80070E1700020BDE8C7
:103AFC00F883026AC76A02EBD111B94203D0FFF70F
:103B0C00DDFE0028A5D1A80004F1300100F4FE75FB
:103B1C00481926F0704643881A0402F07043334368
:103B2C004B551F0A1E0C1D0E012147708670C57067
:103B3C00E1700020BDE8F88309F80060256AE36AAB
:103B4C0005EB582101229942E27005D02046FFF77F
:103B5C00B5FE00287FF47DAFC8F3080CCC44C6F347
:103B6C0003279CF8001021F00F063743BAE700BF7B
:103B7C0001290ED9F8B5436999420C46054606D27F
:103B8C000178022946D003292CD0012903D0012029
:103B9C00F8BD01207047066AC26A04EB540706EBB5
:103BAC005721914205D0FFF789FE00283BD12E6AA0
:103BBC00EA6AC7F3080C013706EB5721AC44914273
:103BCC009CF8306003D02846FFF778FE58BBC7F34B
:103BDC0008000544E30795F8305046EA052130D536
:103BEC000809F8BD016AC36A01EBD411994202D0ED
:103BFC00FFF764FEB8B9A20002F4FE763035AF19B7
:103C0C00A85D7C887D7845EA042140EA012323F0F5
:103C1C007040F8BD026AC66A02EB1421B14205D0AD
:103C2C00FFF74CFE10B14FF0FF30F8BD600000F410
:103C3C00FF773035EC19ED5D94F801C045EA0C20A6
:103C4C00F8BDC1F30B00F8BD2DE9F041D0F80080B0
:103C5C0006460F4600295CD1D8F80C50002D4FD0E9
:103C6C00D8F81400D8F81010A84298BF01250029E4
:103C7C004BD0D8F814302C4607E0012872D0013014
:103C8C007AD0AC4241D0D8F8143001349C4202D3E3
:103C9C00012D3AD9022430682146FFF769FF00282C
:103CAC00EBD1012C5ED9D8F81460A6425AD94FF04A
:103CBC00FF3221464046FFF7BFFE002850D167B1C6
:103CCC00012F4FD9D8F8142097424BD239462246AF
:103CDC004046FFF7B1FE002842D1D8E904CEAEF140
:103CEC000207BC45C8F80C4003D80CF1FF30C8F8EB
:103CFC00100098F8045045F0010188F8041005E014
:103D0C00D8F8101001250029B3D100242046BDE8B5
:103D1C00F0814046FFF72CFF0128044622D9421CB3
:103D2C002AD0D8F814308342F0D8D8F81020002AC2
:103D3C00EBD07C1CA34298BF022430682146FFF7CD
:103D4C0017FF01280ED0431C16D078B1D8F80C50B0
:103D5C00D8F81430012D0DD9AB4298BF3D468AE7F7
:103D6C00012809D001242046BDE8F081002C9AD10D
:103D7C00D8F814303D467EE74FF0FF342046BDE8BE
:103D8C00F08100BF0129F8B5066828D973698B4208
:103D9C000C4624D90746F2B930462146FFF7E8FE17
:103DAC00054621460022304665B3012D17D06B1C09
:103DBC002AD0012C13D973699C4210D2FFF73CFE18
:103DCC0070B9D6E90402911E88420AD3AA4219D9C5
:103DDC0038682C46E1E7012A01D9934208D8022021
:103DEC00F8BD3479013044F0010330613371EDE7F3
:103DFC00114630464FF0FF32FFF71EFE0028EFD180
:103E0C003868CAE70020F8BD0120F8BD2DE9F0475D
:103E1C0005692035B5F5001F044604D30025A561BE
:103E2C000420BDE8F0878369002B4FD0C5F3080848
:103E3C000668B8F1000F37D10F4641690133836131
:103E4C00002938D07089421E12EA55292CD13046EF
:103E5C00FFF78EFE0128824634D9B0F1FF3F2FD0F8
:103E6C007169814212D8002FD8D061692046FFF7C2
:103E7C00EBFE824640B3012824D0B0F1FF3F1FD0A7
:103E8C0001463046FFF784FCD0B97169C4F814A020
:103E9C00A1F1020CAAF10207674503D27089B36A3B
:103EAC0007FB0039C4F8189030364644E6612561AA
:103EBC000020BDE8F0873289B2EB551FF4D8ADE78E
:103ECC000120AEE70220ACE70720AAE70420A8E710
:103EDC002DE9F84300230B600F461546FFF77EFBD8
:103EEC00061EC0F22481B54850F82640002C00F084
:103EFC0026813C60217805F0FE0561B160783EF0CA
:103F0C00BBFCC70707D41DB110F0040540F01381AA
:103F1C002846BDE8F883F0B20022607022703EF0B3
:103F2C0047FCC60700F1B08015B1410700F10381D1
:103F3C0000212046FFF7DAFC022800F0A9800428B3
:103F4C0000F0EF80012800F2EE8094F83C0094F829
:103F5C003B3043EA0022B2F5007F40F0E48094F855
:103F6C00471094F8465055EA012309D1B4F856602D
:103F7C0094F8557094F8540047EA062C40EA0C2348
:103F8C0094F84000E16AA361421E012AA07000F27D
:103F9C00CA8094F83D50AEB26681002E00F0C3800A
:103FAC006F1E2F4240F0BF8094F8428094F84190ED
:103FBC0049EA082E5FEA0E727746A4F808E00FFA79
:103FCC008EF640F0B08094F844C094F8432052EA46
:103FDC000C2209D1B4F8528094F8519094F850E026
:103FEC0049EA08224EEA022294F83F8094F83EC037
:103FFC005CEA082E00F0978003FB00F90EEB17101B
:10400C0000EB09084245C0F08E80A2EB0802AA42E0
:10401C00B2FBF5FCC0F08780694DAC4500F28380A3
:10402C004FF6F570844500F28C8040F6F5760CF175
:10403C0002020EEB010501EB0800B445626125623A
:10404C00A062E16100F2B280002F6CD04D4402EB13
:10405C00420702F00101656201EB5706012506F2E9
:10406C00FF18B3EB582F5ED34FF0FF3CC4E903CCE1
:10407C008022EBB222715348237007880137B9B202
:10408C000180E180002543E703252846BDE8F8833D
:10409C00B4F808C294F80782B4F8F81194F8F73120
:1040AC00B4F8189294F817E2B4F8286294F82772CE
:1040BC0048EA0C2543EA012894F8F61194F806C254
:1040CC004EEA092094F8169294F826E247EA062262
:1040DC0051EA08214CEA052549EA00264EEA022756
:1040EC0005D02046FFF702FC01287FF62EAF35B134
:1040FC0029462046FFF7FAFB01287FF626AF36B19A
:10410C0031462046FFF7F2FB01287FF61EAF57B170
:10411C0039462046FFF7EAFB01287FF616AF042844
:10412C0001D10125F4E60D252846BDE8F8830B25C1
:10413C002846BDE8F8830A252846BDE8F8830C25F7
:10414C00E6E694F85B7094F85A90E16149EA07222C
:10415C0032430CF102050EEB010601EB080017B21D
:10416C0065612662A062002FDDD1B4F85E8094F800
:10417C005DC094F85C60AA004CEA082902F2FF15B5
:10418C0046EA0920B3EB552F6062CCD394F86170EA
:10419C0094F8603043EA07224FF0FF368025012A5D
:1041AC00C4E9036625710FD0032364E7002FBAD04E
:1041BC004D4465625600022551E700BF480F0020B0
:1041CC00F5FFFF0F4C0F002001312046FFF776FB67
:1041DC000028E9D194F82F1294F82E7220714AF627
:1041EC00552347EA01209842DED1668E94F831E0DF
:1041FC0094F8305017494EEA062845EA08228A42BC
:10420C00D2D1B4F8167294F8150294F814C201F1D4
:10421C00FF5909F5005640EA072320364CEA0325DE
:10422C00B542C1D1B4F81A7294F819E2B4F81E620E
:10423C0094F81D1294F8188294F81CC24EEA0722C6
:10424C0041EA062048EA02254CEA0029C4E9039514
:10425C00AAE700BF5252614170B5042305680446B9
:10426C001EE0EB6A934203D0FFF728FB034608BB22
:10427C00E669327800212046DAB196F80BC0E52ABF
:10428C000CF03F03A37107D02E2A23F0200603D095
:10429C000F2B01D0082E09D1FFF7B8FD034648B902
:1042AC00A26928461146002ADBD11BB90023184607
:1042BC0070BD04230020A061184670BD816838B51C
:1042CC00002305680361044681B92878022809D8BF
:1042DC002A89F2B16B6AA3616161D3B13035E561B2
:1042EC00002038BD6A6A002AF2D011466B892BB1C6
:1042FC0011E001280DD9686981420AD22068FFF7C4
:10430C0037FC431C0146F4D1012038BD0025C4E91B
:10431C000515022038BD6A69A1F1020C901E844576
:10432C00F4D2AA6A0CFB0323A361D5E770B5066827
:10433C000446FFF7C3FF054638B1042D08BF072517
:10434C00284670BDFFF762FD70BBA169F36A994204
:10435C00304602D0FFF7B2FA30BBE2691378E52B96
:10436C0003D001212046002BECD1A169F06A8142D7
:10437C0004D03046FFF7A2FAC0B9E269104600211A
:10438C0020223EF0E1FC04F1200CBCE80300E469BF
:10439C0020606160BCF800109CF80230A372012010
:1043AC002181F070284670BD0546C6E705462846B3
:1043BC0070BD00BF2DE9F84FD0F8008081460B7816
:1043CC002F2B0D4601F10101F9D05C2BF7D0002009
:1043DC00C9F8080029781F2940F2DF8009F120066E
:1043EC004FF0203272603260C6F807202C78202CF7
:1043FC0020D94FF0000A53464FF0080B01272F2C01
:10440C004AD05C2C48D02E2C18D0DA4512D2802CF5
:10441C0029D99F2C04D904F12000C1B21C2934D80D
:10442C00EF5D3F2F06D97E2F40F2848087F080020B
:10443C007C2A7FD906242046BDE8F88FBBF10B0FF0
:10444C00F8D03B464FF0080A4FF00B0BEC5C202CDD
:10445C0003F10107D3D899F82010E5293D4400F069
:10446C00AF8004232DE0594821463EF075FC00280E
:10447C00E0D1A4F16103192B9CBF203CE4B206F8F7
:10448C000A403B460AF1010AE0E7504821463EF05B
:10449C0063FC0028F3D0CDE72F443A782F2A3D4611
:1044AC0007F10107F9D05C2AF7D0BAF1000FC1D09F
:1044BC0099F82000E5287DD02B78212B34BF0423DC
:1044CC00002389F82B304846D9F80070FFF7F6FE28
:1044DC000446A0B169E093F80BA00AF03F0C89F8F0
:1044EC0006C0DB7A13F0080402D13EF011FC80B355
:1044FC0000214846FFF78AFC0446002855D1D9F81C
:10450C001810FB6A9942384604D0FFF7D7F90446D5
:10451C0000284AD1D9F81C301C780B223146184699
:10452C00002CD8D199F82B506A0747D40524204683
:10453C00BDE8F88F0BF1FF3050457FF67BAF0AF1E9
:10454C00010C06F80A40023306F80C700AF1020A54
:10455C007CE799F82B104B073FF56DAF1AF0100F55
:10456C00E4D0D9F8102098F80070C2F3080B08F1C9
:10457C00300EDE44032F9EF81B009EF81A3043EADF
:10458C00002207D19EF815409EF8141041EA04272A
:10459C0042EA0742C9F8082022E7802689F82B60F6
:1045AC004846BDE8F84FFFF789BE042CBAD0204628
:1045BC00BDE8F88F052489F820407DE704243AE70C
:1045CC004FF0050E89F820E04BE700BFC82F040818
:1045DC0010B584B01446019003A800910391FEF726
:1045EC00FDFF002816DB0D4A52F820300BB10021DC
:1045FC001970019B0BB10021197042F8203014B9CD
:10460C00204604B010BD002201A96846FFF760FCEB
:10461C0004B010BD0B2004B010BD00BF480F00202B
:10462C002DE9F0478EB00191002800F0918002F046
:10463C003F07164604463A4602A901A8FFF748FC74
:10464C00054628B10020206028460EB0BDE8F08752
:10465C00DDE9011303A80393FFF7ACFE80B99DF9C4
:10466C003700002879DB16F01C0F10D09DF81220B3
:10467C0012F0110F73D1700740F1D4800825E1E7D7
:10468C0016F01C0F01D004286DD00546DAE79DF812
:10469C001210CA0665D4B20701D5CB075FD4DDF87A
:1046AC0008A0DAF82C103E0748BF47F040070A9BD9
:1046BC00C4E908139AF8002093F81BE0987E032AAB
:1046CC0040EA0E2606D193F81590197D41EA09208F
:1046DC0046EA0046A660D98B93F81DC01A7FBAF83B
:1046EC0006E0A4F804E04CEA012842EA082800217C
:1046FC0004F12809C4F800A0C4F80C802774617474
:10470C00E161616148464FF400723EF01DFBB80652
:10471C009AD5B8F1000F97D0BAF80A30C4F81480C3
:10472C00B8EB432F4FEA432708D882E0411CA8EB93
:10473C00070875D047457CD2D4F800A031465046C6
:10474C00FFF716FA01280646F0D80225A66179E78C
:10475C00092528460EB0BDE8F087062572E7072527
:10476C0070E704256EE703A8FFF7E0FD47F00807A4
:10477C0000288AD10A9EDDF808A0002221205021B1
:10478C00B273F273307471740A9B9A75DA75187679
:10479C0059760A989AF8002090F81B8090F81A9095
:1047AC00032A49EA082606D190F815C0017D41EA92
:1047BC000C2346EA03462022C2720A980023837611
:1047CC00C3769AF80010032901D1037543750A9832
:1047DC0000220123027742778277C2778AF803306E
:1047EC00002E3FF45EAF03A83146DAF82C80FFF7B9
:1047FC00C9FA00287FF449AFDDF808A0DAF82C10CC
:10480C00884538D050464146FFF758F8DDF808A0E7
:10481C00721ECAF80C2000283FF443AF054611E77E
:10482C00012593E73107A5D4DDF808A0DAF82C10A0
:10483C003DE7C8F30800A66100283FF405AF0299D4
:10484C004A69B71EA2F1020A574505D2B1F80AC04F
:10485C008B6A07FB0C360EB90225F3E606EB5822E1
:10486C00E2614878012349463EF008F800283FF4FD
:10487C00EBAE0125E6E6013ECAF80C6013E700BF7B
:10488C002DE9F04F984685B000238A46C8F80030D1
:10489C0003A991460446FEF7B9FE0546002842D10D
:1048AC00657C002D3FD1207C10F0010B00F089803D
:1048BC006069E268111A894528BF8946B9F1000F71
:1048CC0031D0C0F30801002946D103994E89771ED7
:1048DC0017EA50232BD0A0694A69A0F1020C901E54
:1048EC00844533D24A898E6A02FB0C6676B3B9F5DD
:1048FC00007F1E4449D2E269B24264D094F9103070
:10490C00002B04F1280761DB487801233246394635
:10491C003DF0B4FF20B96369E661C3F308011DE003
:10492C0001265D466674284605B0BDE8F08F002868
:10493C0040D1A068012809D9421CF1D00399A0618B
:10494C004A69A0F1020C901E8445CBD3022528465F
:10495C00657405B0BDE8F08F04F12807C1F5007649
:10496C004E4528BF4E463944324650463EF0DEF99D
:10497C00D8F80030606933443044B9EB0609C8F804
:10498C000030B24460619CD1CDE703EB592E9645C3
:10499C004FEA592788BFD71A48783B4632465146CA
:1049AC003DF06CFF0028BBD194F9100000281ADBF5
:1049BC007E02DDE7A16920680193FFF7D9F8019B1E
:1049CC00B8E70725AFE704F12807A4E748780123E7
:1049DC0039463EF035F80028A2D1207C039900F02E
:1049EC007F02227490E7E1698A1BBA42E0D20AEB9B
:1049FC00422004F128014FF400723EF097F9D7E7FA
:104A0C002DE9F04F994683B000238A46C9F800304F
:104A1C0001A916460446FEF7F9FD0546002860D1AB
:104A2C00657C002D5DD1207C820740F1B5806769E3
:104A3C00F74228BFFE43002E50D0C7F308000028D1
:104A4C0053D10199B1F80AB00BF1FF3010EA572B92
:104A5C000FD1002F3BD1A068002800F08F800128D7
:104A6C0065D0431C00F09280A2680199A061002AD5
:104A7C0070D094F91070002F71DBA0694F69A0F110
:104A8C00020CBA1E944552D2B1F80AE08B6A0EFBA6
:104A9C000C3000284BD0B6F5007F0BEB00074CD345
:104AAC000BEB562CF4454FEA562888BFAEEB0B089F
:104ABC00487843463A4651463DF0C2FF002865D13E
:104ACC00E269D31B434576D34FEA48281DE0A16920
:104ADC002046FFF7B9F80028C1D1207C40F04001F6
:104AEC002174284603B0BDE8F08F04F1280BC0F503
:104AFC000078B04528BFB0465146584442463EF077
:104B0C0015F9217C61F07F0727746769E368D9F890
:104B1C0000204744BB4238BF3B464244B6EB080634
:104B2C00C9F80020C244E360676186D1D5E702254D
:104B3C002846657403B0BDE8F08FE2696069BA423B
:104B4C002CD0E368984204F1280B2AD3E761C0F318
:104B5C000800CCE794F91070A060002F8DDA48782B
:104B6C00E269012304F128013DF06AFF70B994F861
:104B7C001080019908F07F0323747EE75946204684
:104B8C00FFF762F800287FF46AAFA6E701252846F4
:104B9C00657403B0BDE8F08F0725A2E704F1280B7C
:104BAC00D4E74878012359463A463DF067FE002881
:104BBC00ECD16069CAE70AEB43214FF4007204F1AF
:104BCC0028003EF0B3F8207C00F07F0121747BE7D5
:104BDC0070B582B001A90446FEF718FD00283AD141
:104BEC00237C13F0400036D01B0636D40198216A82
:104BFC00C56AA94203D0FEF761FE60BB0198636AE7
:104C0C00DE7A46F02001D972A26826689A76C2F341
:104C1C000725DD763178032903D1120C160A1A7593
:104C2C005E75E2681A77110A150C120E59779D778A
:104C3C000021DA772126012250259975D9759974AE
:104C4C00D9741E765D76C270FEF7D8FD94F810C04C
:104C5C002CF04003237402B070BD0198E2694078D7
:104C6C00012304F128013DF0EBFE20B9217C01F079
:104C7C007F022274BAE70120EDE700BF10B582B0C5
:104C8C000446FFF7A5FF08B102B010BD01A92046EC
:104C9C00FEF7BCFC0028F7D1206002B010BD00BFAD
:104CAC0030B585B00191002839D00446002203A903
:104CBC0001A8FFF70DF918B10025256005B030BD2E
:104CCC00039B019923602046FFF774FB18BB94F9F2
:104CDC002B00002826DBA179CB061ED5039AE169AF
:104CEC001078CD7E91F81AC003284CEA052306D122
:104CFC004D7D91F814E04EEA052143EA0143A3608F
:104D0C00D288A2802046FFF7D9FA042805D00028C3
:104D1C00D2D105B030BD0428CED10520CCE7092076
:104D2C0005B030BD039AEBE710B582B001A904467B
:104D3C00FEF76CFC00B9206002B010BD30B583B03A
:104D4C000D4601A90446FEF761FCA8B92046ADB199
:104D5C00FFF782FA10F0FB030ED1A2696B7222B13D
:104D6C00294604F11C00FEF769FC20460021FFF7E0
:104D7C004DF8042808BF002003B030BDFFF79EFAA1
:104D8C0003B030BD30B58FB00D460190002203A9A1
:104D9C0001A8FFF79DF8044610B120460FB030BDB6
:104DAC00019903A8FFF706FB04460028F5D19DF9ED
:104DBC003730002B0ADB002DEFD009986C720028DD
:104DCC00EBD029460AA8FEF739FCE6E70624E4E70F
:104DDC002DE9F04784B00F460190144603A9002238
:104DEC0001A8FFF775F8064640B9039D2560D5E983
:104DFC000439A9F10202934204D83B60304604B056
:104E0C00BDE8F0872878012826D019F0010F296A0F
:104E1C003446B04651D0EB6A994201F1010406D0F8
:104E2C002846FEF74BFD002840F09F80039D2A7812
:104E3C00022A214600F09D80688E95F8314095F845
:104E4C0030A044EA00234AEA032232F0704301D135
:104E5C004FF0010804242BE00224B04609E001289D
:104E6C0000F0858008B908F1010803994A69A2424B
:104E7C0056D921462846FEF77BFE431C04F101045B
:104E8C00EDD10126BAE751462878022805F1300306
:104E9C005ED01A19185D92F801C053884CEA032EA3
:104EAC0040EA0E2232F0704301D108F101080434BB
:104EBC00B9F10109C4F3080433D05CB9EB6A994227
:104ECC0001F1010A4FD02846FEF7F8FC00284CD11E
:104EDC00039D51462A78022A05F130032DD018196A
:104EEC0013F804E090F801C043884CEA032A4EEA18
:104EFC000A2232F0704308BF08F101080434C4F3ED
:104F0C00080409F1FF39002CBED1EA6A914201F183
:104F1C00010AB8D02846FEF7D1FC30BB039DB2E79E
:104F2C000D46C7F800802F79C5F8108047F00100B6
:104F3C002871304604B0BDE8F087181913F804E066
:104F4C0043785EEA032308BF08F101080234D6E770
:104F5C00181913F804A043785AEA032301D108F175
:104F6C0001080234A4E75146B4E7064646E7022698
:104F7C0044E795F8310095F8304054EA002301D10C
:104F8C004FF00108022493E730B59BB00222019048
:104F9C0003A901A8FEF79CFF08B11BB030BD039B11
:104FAC000199049304A8FFF705FA0028F5D19DF99F
:104FBC003B00002823DB9DF816C05FEACC721CD4A2
:104FCC0003990B9A0B78D57E947E032B44EA052526
:104FDC0006D192F815E0107D40EA0E2245EA024512
:104FEC005FEACC630DD404A8FEF714FD0028D4D1DD
:104FFC00B5B90398FEF702FCCFE70720CDE70620F2
:10500C00CBE70FA80F911195FFF758F90028C4D1E1
:10501C000FA8FFF721F90028EFD00428BDD1E2E753
:10502C000246294604A8FEF7ADFE0028B5D1E0E7FC
:10503C002DE9F04393B00222019002A901A8FEF7DA
:10504C0047FF044618B1204613B0BDE8F083DDE9F4
:10505C000113054607A80793FFF7ACF90446C8B13E
:10506C000428F0D1029A0392294603A8FEF7ECFD1E
:10507C000546A0B1012814D0431C14D00146029857
:10508C00FEF786FB044680B1294603A80022FEF7F2
:10509C0079FED8E70824204613B0BDE8F083072436
:1050AC00F2E70224F0E70124EEE7029B1C7883F878
:1050BC004600102621274FF020324FF0500C2E21A5
:1050CC0083F83B6083F84870EEB2C5F30727032CD6
:1050DC001A635A6383F84700C3F8372083F849C032
:1050EC0083F8301003F1300283F84A6083F84B7078
:1050FC0046D0D2F80080D2F804E0D468D2F80890F8
:10510C000998C3F85080C3F854E0C3F85890DC6594
:10511C00D2F810805469D2F818C0D269DA66C0F39C
:10512C00072EC3F868C0C3F860805C6683F8511022
:10513C0083F86A0083F86BE0012107A8D970FFF7A8
:10514C00F5F8044600289FD10E9B029C9875D875E3
:10515C005022212018765A760E9B9E76DF76267882
:10516C00032E03D12D0C2F0A1D755F750E9910207F
:10517C000122C8722046E270FEF740FB044662E74B
:10518C00280C040A83F8440083F84540D2F80090B8
:10519C00D2F804C09468D2F80C800998C3F85090E7
:1051AC00C3F854C09C65C3F85C80D2F81090D2F858
:1051BC001480D2F818E0D269C3F86090040C4FEA5E
:1051CC00142CC0F30729C3F86480C3F868E0DA66CE
:1051DC0083F8511083F86A0083F8644083F865C043
:1051EC0083F86B90A8E700BF30B5A3B00190684678
:1051FC000091FEF7F3F9022203A901A8FEF768FE5D
:10520C0008B123B030BD039B01990C930CA8FFF798
:10521C00D1F80028F5D19DF85B0010F0A00F40F0FC
:10522C008380139D28686968AA68EB6804AC0FC476
:10523C0028696969AA69EB690DF1300C0FC4BCE8E7
:10524C000F000DF15C0EAEE80F00BCE80F00AEE8ED
:10525C000F009CE807008EE80700009917A8FFF7DD
:10526C00A9F8002862D00428CBD117A8FFF75EF864
:10527C000028C6D11E9D9DF81B20DDF81D409DF811
:10528C002F10C5F80D40BDF82D00E977D10658BF99
:10529C0042F02002A5F81D000398EA72DDF821C047
:1052AC00DDF825E0DDF82930C5F811C00122C5F87C
:1052BC0015E0C5F81930C270EC7AE2062AD50E9BBF
:1052CC0019998B4226D0047895F81BC095F81AE0F2
:1052DC00032C4EEA0C2205D1697D2D7D45EA012374
:1052EC0042EA03424469951EA11E8D4229D2B0F8B0
:1052FC000AC0836A05FB0C3119B3C26A914205D00E
:10530C00FEF7DCFA00287FF47CAF039890F851404C
:10531C002E2C18D00CA8FEF77DFB00287FF471AF63
:10532C000398FEF76BFA6CE706206AE7199A0E9958
:10533C008A4201D0082064E71B98109B9842F9D14F
:10534C0093E702205DE7199D039A80F86A50C5F334
:10535C00072E80F86BE01178032905D12B0C1C0A61
:10536C0080F8643080F865400120D070D2E700BF2F
:10537C0038B50E4A0E4B11781C6805464FF47A70FE
:10538C00B0FBF1F2B4FBF2F000F076FA08B90F2D95
:10539C0001D9012038BD0446024629464FF0FF30A2
:1053AC0000F024FA034B20461D6038BD210000207C
:1053BC002800002024000020014B1868704700BF13
:1053CC00EC800120704700BF002800F0A080F8B5E9
:1053DC00056C04463DB1236CDB060CD5002284F829
:1053EC003C200120F8BDFFF7EDFF6564236C84F8C9
:1053FC003C50DB06F2D4226C48492368484D22F419
:10540C00885020F0020646F0020727644A6822F40E
:10541C00403048604E6867683E434E605A68216968
:10542C00A76822F4807058605E6846EA01225A60D0
:10543C005968E66821F0407058605A68A06A3A438F
:10544C005A609F6827F4006199609A68A84242EA02
:10545C0006029A6052D09968E56A21F070629A60EF
:10546C009E68304398609F6827F040509860996818
:10547C00294399609D6825F002029A609E68277EF8
:10548C0046EA4700986094F82010002941D05E68E5
:10549C00676A46F400605860596821F460455D60A5
:1054AC005A687E1E42EA46375F60D96AE0696569D0
:1054BC0021F47002DA62DE6A471E46EA0751D962AD
:1054CC00986820F400729A609E6894F8307046EAEE
:1054DC0047219960986820F480629A609E68002049
:1054EC0046EA85259D606064236C002223F0030747
:1054FC0047F0010184F83C202164F8BD9D6825F03B
:10550C0070669E609F6827F040509860B2E701205B
:10551C0070475D6825F400625A60C6E700230140BD
:10552C000100000F10B490F83C3083B00021012B27
:10553C00019177D002460120116882F83C008C68FA
:10554C00E40714D43C4B3D4C1B688868A4FB034314
:10555C009C0C04EB440340F0010088600193019C17
:10556C002CB1019B581E0190019C002CF9D188682C
:10557C00136C10F0010031D023F4E06020F0010432
:10558C0044F4807313644868400505D5146C24F406
:10559C00405C4CF480531364106C10F480541CBFAA
:1055AC00546C24F0060454646FF02203244C002045
:1055BC0082F83C000B60626812F01F0319D1214B7A
:1055CC00994226D003F5807081421FD01E4A914229
:1055DC002DD0002003B05DF8044B704743F0100150
:1055EC001164546C44F00103536403B05DF8044B34
:1055FC007047144B9942F8D18C6814F0405CF4D18C
:10560C00886840F080428A606046EEE76368DA069C
:10561C00DFD1886810F04050DBD18A6842F08044BA
:10562C008C60E2E7022003B05DF8044B70476468BD
:10563C00E306CED4EDE700BF2800002083DE1B4339
:10564C00002301400020014000220140F0B490F8FA
:10565C003C3082B00022012B019200F09880012492
:10566C0080F83C400D68092D2AD804688B682269A3
:10567C00496805EB45070726BE4022EA060222616F
:10568C002669BB403343062923612E462ED801EBF5
:10569C00810C676BACF105031F21994027EA0102CD
:1056AC006263616B9E400E436663414B9C4230D0FB
:1056BC004FF0000C80F83CC0604602B0F0BC704764
:1056CC0004688B68E7684968AEB206EB460CACF12F
:1056DC001E024FF0070C0CFA02FC27EA0C07E760DD
:1056EC00E76893403B430629E360D0D90C2932D8B4
:1056FC0001EB810C236BACF123011F228A4023EABE
:10570C0002072763226B2A4B8E4016439C4226636A
:10571C00CED1122D2ED0274CA5423CD1264D274B55
:10572C006F68274C27F480026A60696841F40006B0
:10573C006E601D68A4FB05239F0C07EB87046200B9
:10574C00019201990029B3D0019E751E0195019B10
:10575C00002BF9D1ACE701EB8103A3F14102E16A23
:10576C001F27974021EA0703E362E76A96403E430E
:10577C00E6629AE7D3F8047327F40004C3F80443F1
:10578C00D3F8042342F48001C3F8041390E70220F9
:10579C0002B0F0BC7047112D8AD1074D6F6827F409
:1057AC0080026A60696841F400066E6080E700BFA1
:1057BC0000200140120000100023014028000020AE
:1057CC0083DE1B430849CA6810B400024FF6FF047D
:1057DC00224000F4E063134343F0BF6242F4003014
:1057EC005DF8044BC860704700ED00E0194B70B4D5
:1057FC00DC68C4F30223C3F10705042D03F104068E
:10580C0028BF0425062E19D9033B4FF0FF349C40CA
:10581C0022EA04024FF0FF36AE4021EA060199401D
:10582C00002841EA02010CDB00F1604C0CF56144EC
:10583C000E01F1B284F8001370BC704700221346BD
:10584C00E8E7054D00F00F0005440A01D3B22B76B2
:10585C0070BC704700ED00E0FCEC00E0002807DBBA
:10586C0000F01F01034A400901238B4042F820300D
:10587C00704700BF00E100E00138B0F1807F0FD22B
:10588C0010B4084B084C58604FF0F00C84F823C04F
:10589C000022072110469A605DF8044B196070478E
:1058AC000120704710E000E000ED00E02DE9F04F22
:1058BC0000230C6883B003E00133102B00F09580BB
:1058CC0001229A4002EA040CA243F5D14E6806F07C
:1058DC000302551E012D40F28B80032A40F0C98033
:1058EC005F00BA40D54307683D402A43F50002608B
:1058FC00E2D57C4ADFF8F4E100250195576C47F4BA
:10590C0080455564576C23F0030808F1804B07F46D
:10591C0080450BF59C3A019503F00302019FDAF8E0
:10592C00089095000F27AF40704529EA070232D046
:10593C000EF58067B84200F0A480DFF8B4E1704542
:10594C0000F0A580DFF8AC81404500F0A680DFF8C0
:10595C00A8B1584500F0A780DFF8A091484500F0A9
:10596C00AE80DFF89CE1704500F0AF80DFF89481E9
:10597C00404500F09E80DFF890B1584500F0AB80B8
:10598C00DFF888E170450CBF4FF0090E4FF00A0E9E
:10599C000EFA05F52A43544FCAF808203D68F20365
:1059AC006FEA0C07504A54BF3D404CEA05051560A0
:1059BC005568B2034C4A54BF3D404CEA050555604E
:1059CC009568F202484A54BF3D404CEA0505956083
:1059DC00D268B50203F10103434E54BF3A404CEA7E
:1059EC000202102BF2607FF46BAF03B0BDE8F08FB6
:1059FC0087684FEA430E4FF0030909FA0EF527EAC0
:105A0C00050ACF6807FA0EFB4BEA0A078760D0F845
:105A1C000480C6F3001728EA0C099F4047EA0907DF
:105A2C00ED434760C76807EA050A8F6807FA0EFB63
:105A3C004BEA0A07022AC76002D002FA0EF252E7BA
:105A4C00DF0800EB870803F00709D8F820704FEA4D
:105A5C0089094FF00F0A0AFA09FB27EA0B0A0F69AA
:105A6C0007FA09F949EA0A0702FA0EF2C8F8207097
:105A7C0039E74FEA430E4FF0030808FA0EF5ED43F1
:105A8C00D0E74FF0010E0EFA05F52A4383E74FF0ED
:105A9C00020E0EFA05F73A437DE74FF0030E0EFAAD
:105AAC0005F52A4377E74FF0040E0EFA05F73A4353
:105ABC0071E74FF0070E0EFA05F52A436BE74FF02E
:105ACC00050E0EFA05F52A4365E74FF0060E0EFAA1
